:0B00F800FFFF4457494E54350204E05E
:1000DA0012052512006ED2AFB2917FE87E0312009C
:0300EA002E80F570
:0C05CB000220000002220000021E0000BE
:1000BA00E4FDFCC3ED9FEC9E5015E4FBFA0BBB007C
:0F00CA00010ABA43F8BB33F50DBD00010C80E409
:0100D9002204
:10052500C2AFC2D3C2D4E4F58E75C870F593759485
:100535000175950275C960F5F875F901F5A8F5B865
:10054500F59AF5A9F5B953C9FDF580F590F5A0F52E
:10055500B075B75075BCFFF5BD75BE0F75D8807504
:10056500985075BA0375AAE4759B5075BB03759DC4
:10057500C8759680759780F5D975E7E075A780757C
:10058500AB80F5AE75AFE0758911F58CF58AC28C37
:10059500F58DF58BC28E75880575C870F5CDF5CCD2
:0705A50075CBBC75CACD2225
:1005AC00438901758CBC758ACDD2A9D2AFD28C226D
:10006E0075C870E4F5CDF5CC75CBBC75CACD43A87B
:04007E0020D2C822A2
:0A0287008B0A8A0B890C8F828E838C
:10029100E4FCF50FF510F511F512C2AF7D02120461
:1002A1000EAA06AB07AE83AF827C007D0212040E5C
:1002B100EBAE027810CEA2E713CE13D8F8F5F1EA2F
:1002C100FFEFF5F2EBF5F375F40175F8AFED6401AD
:1002D1004C703630FCFDD2FE20FEFDAB0A050CE56C
:1002E1000CAA0B7002050B14F9E5FC1203FCAB0A16
:1002F100050CE50CAA0B7002050B14F9E5FD1203C0
:10030100FCE50E150E7002150DAE0DAF0E7C007DD5
:100311000212040E8E0F8F10AE0DAF0E7C007D0207
:1003210012040E8C118D12E512640145117008053D
:1003310010E5107002050FE5101510AE0F700215D3
:100341000F4E70030203DDE512640145117036E5BD
:1003510010450F703030FCFDD2FE20FEFDAB0A05CA
:100361000CE50CAA0B7002050B14F9E5FA1203FC5B
:10037100AB0A050CE50CAA0B7002050B14F9E5FBA1
:100381001203FC805730FCFDD2FE20FEFDAB0A05B6
:100391000CE50CAA0B7002050B14F9E5FA1203FC2B
:1003A100AB0A050CE50CAA0B7002050B14F9E5FB71
:1003B1001203FCAB0A050CE50CAA0B7002050B1429
:1003C100F9E5FC1203FCAB0A050CE50CAA0B700263
:1003D100050B14F9E5FD1203FC020338E4F5F8D22C
:0103E100AF6C
:0103E20022F8
:0A0103008B158A1689178F828E83F0
:10010D00E4FCF51AF51BF51CF51DC2AF7D021204BA
:10011D000EAA06AB07AE83AF827C007D0212040EE1
:10012D00EBAE027810CEA2E713CE13D8F8F5F1EAB4
:10013D00FFEFF5F2EBF5F375F40175F88FED640152
:10014D004C7049F5F475F8AF30FCFDD2FE20FEFD84
:10015D0075F40175F88F30FCFDAB150517E517AA81
:10016D00167002051614F91203E3F5FCAB1505170D
:10017D00E517AA167002051614F91203E3F5FDD260
:10018D00FE20FEFDE519151970021518AE18AF19F0
:10019D007C007D0212040E8E1A8F1BAE18AF197CD7
:1001AD00007D0212040E8C1C8D1DE51D6401451C85
:1001BD007008051BE51B7002051AE51B151BAE1A11
:1001CD007002151A4E7003020281E51D6401451C73
:1001DD007049E51B451A7043F5F475F8AF30FCFD19
:1001ED00D2FE20FEFD75F40175F88F30FCFDAB15C8
:1001FD000517E517AA167002051614F91203E3F593
:10020D00FAAB150517E517AA167002051614F912A3
:10021D0003E3F5FBD2FE30FE5B80FB30FCFDAB153E
:10022D000517E517AA167002051614F91203E3F562
:10023D00FAAB150517E517AA167002051614F91273
:10024D0003E3F5FBAB150517E517AA1670020516A6
:10025D0014F91203E3F5FCAB150517E517AA167093
:10026D0002051614F91203E3F5FDD2FE20FE03027A
:09027D0001C780F8E4F5F8D2AFE6
:010286002255
:03000300020006F2
:05000600C2AFD2AF32D1
:03000B000200866A
:04008600C0E0C0D046
:10008A00C2AF758CBC758ACD051FE51F7002051EAF
:10009A00C394E8E51E94034010751E00751F00B254
:0B00AA00900521E52170020520D2AF77
:0500B500D0D0D0E032C4
:0300130002000EDA
:05000E00C2AFD2AF32C9
:03001B00020016CA
:05001600C2AFD2AF32C1
:0300230002001EBA
:05001E00C2AFD2AF32B9
:10002E008E228F23E5234522600F20ADF7E52315A1
:0A003E002370021522D2AD80EB22E0
:03002B000205BC0F
:0F05BC00C0E0C2C6E523152370021522D0E0323D
:03004B000200268A
:05002600C2AFD2AF32B1
:0300530002004E5A
:05004E00C2AFD2AF3289
:03005B000200564A
:05005600C2AFD2AF3281
:0300630002005E3A
:05005E00C2AFD2AF3279
:03006B000200662A
:05006600C2AFD2AF3271
:030083000200ED8B
:0500ED00C2AFD2AF32EA
:030000000204995E
:0C049900787FE4F6D8FD7581230204E0B2
:1004A5000200DAE493A3F8E493A34003F68001F293
:1004B50008DFF48029E493A3F85407240CC8C33358
:1004C500C4540F4420C8834004F456800146F6DF27
:1004D500E4800B01020408102040809005CBE47EE7
:1004E500019360BCA3FF543F30E509541FFEE4931C
:1004F500A360010ECF54C025E060A840B8E493A3E3
:10050500FAE493A3F8E493A3C8C582C8CAC583CA0D
:10051500F0A3C8C582C8CAC583CADFE9DEE780BEC5
:0105D7000023
:1003E300BB010689828A83E0225002E722BBFE0218
:0903F300E32289828A83E493224B
:1003FC00BB010689828A83F0225002F722BBFE01E0
:02040C00F322D9
:10040E00C2D5EC30E709B2D5E4C39DFDE49CFCEE09
:10041E0030E715B2D5E4C39FFFE49EFE120444C339
:10042E00E49DFDE49CFC800312044430D507C3E434
:06043E009FFFE49EFE2278
:10044400BC000BBE0029EF8DF084FFADF022E4CC9C
:10045400F875F008EF2FFFEE33FEEC33FCEE9DEC65
:10046400984005FCEE9DFE0FD5F0E9E4CEFD22EDAB
:10047400F8F5F0EE8420D21CFEADF075F008EF2FF5
:10048400FFED33FD4007985006D5F0F222C398FDE6
:050494000FD5F0EA2283
:00000001FF
